{
  "_format": "hh-sol-artifact-1",
  "contractName": "DuckBilledMemeToken",
  "sourceName": "contracts/DuckBilledMemeToken.sol",
  "abi": [
    {
      "inputs": [],
      "stateMutability": "nonpayable",
      "type": "constructor"
    },
    {
      "anonymous": false,
      "inputs": [
        {
          "indexed": true,
          "internalType": "address",
          "name": "owner",
          "type": "address"
        },
        {
          "indexed": true,
          "internalType": "address",
          "name": "spender",
          "type": "address"
        },
        {
          "indexed": false,
          "internalType": "uint256",
          "name": "value",
          "type": "uint256"
        }
      ],
      "name": "Approval",
      "type": "event"
    },
    {
      "anonymous": false,
      "inputs": [
        {
          "indexed": false,
          "internalType": "address",
          "name": "account",
          "type": "address"
        }
      ],
      "name": "Paused",
      "type": "event"
    },
    {
      "anonymous": false,
      "inputs": [
        {
          "indexed": true,
          "internalType": "address",
          "name": "from",
          "type": "address"
        },
        {
          "indexed": true,
          "internalType": "address",
          "name": "to",
          "type": "address"
        },
        {
          "indexed": false,
          "internalType": "uint256",
          "name": "value",
          "type": "uint256"
        }
      ],
      "name": "Transfer",
      "type": "event"
    },
    {
      "anonymous": false,
      "inputs": [
        {
          "indexed": false,
          "internalType": "address",
          "name": "account",
          "type": "address"
        }
      ],
      "name": "Unpaused",
      "type": "event"
    },
    {
      "inputs": [
        {
          "internalType": "address",
          "name": "owner",
          "type": "address"
        },
        {
          "internalType": "address",
          "name": "spender",
          "type": "address"
        }
      ],
      "name": "allowance",
      "outputs": [
        {
          "internalType": "uint256",
          "name": "",
          "type": "uint256"
        }
      ],
      "stateMutability": "view",
      "type": "function"
    },
    {
      "inputs": [
        {
          "internalType": "address",
          "name": "spender",
          "type": "address"
        },
        {
          "internalType": "uint256",
          "name": "amount",
          "type": "uint256"
        }
      ],
      "name": "approve",
      "outputs": [
        {
          "internalType": "bool",
          "name": "",
          "type": "bool"
        }
      ],
      "stateMutability": "nonpayable",
      "type": "function"
    },
    {
      "inputs": [
        {
          "internalType": "address",
          "name": "account",
          "type": "address"
        }
      ],
      "name": "balanceOf",
      "outputs": [
        {
          "internalType": "uint256",
          "name": "",
          "type": "uint256"
        }
      ],
      "stateMutability": "view",
      "type": "function"
    },
    {
      "inputs": [
        {
          "internalType": "uint256",
          "name": "amount",
          "type": "uint256"
        }
      ],
      "name": "burn",
      "outputs": [],
      "stateMutability": "nonpayable",
      "type": "function"
    },
    {
      "inputs": [
        {
          "internalType": "address",
          "name": "account",
          "type": "address"
        },
        {
          "internalType": "uint256",
          "name": "amount",
          "type": "uint256"
        }
      ],
      "name": "burnFrom",
      "outputs": [],
      "stateMutability": "nonpayable",
      "type": "function"
    },
    {
      "inputs": [
        {
          "internalType": "uint256",
          "name": "_tokensToBurn",
          "type": "uint256"
        }
      ],
      "name": "burnTokens",
      "outputs": [],
      "stateMutability": "nonpayable",
      "type": "function"
    },
    {
      "inputs": [
        {
          "internalType": "uint256",
          "name": "_tokensToBuy",
          "type": "uint256"
        }
      ],
      "name": "buyTokens",
      "outputs": [],
      "stateMutability": "payable",
      "type": "function"
    },
    {
      "inputs": [],
      "name": "cap",
      "outputs": [
        {
          "internalType": "uint256",
          "name": "",
          "type": "uint256"
        }
      ],
      "stateMutability": "view",
      "type": "function"
    },
    {
      "inputs": [],
      "name": "decimals",
      "outputs": [
        {
          "internalType": "uint8",
          "name": "",
          "type": "uint8"
        }
      ],
      "stateMutability": "view",
      "type": "function"
    },
    {
      "inputs": [
        {
          "internalType": "address",
          "name": "spender",
          "type": "address"
        },
        {
          "internalType": "uint256",
          "name": "subtractedValue",
          "type": "uint256"
        }
      ],
      "name": "decreaseAllowance",
      "outputs": [
        {
          "internalType": "bool",
          "name": "",
          "type": "bool"
        }
      ],
      "stateMutability": "nonpayable",
      "type": "function"
    },
    {
      "inputs": [],
      "name": "destroy",
      "outputs": [],
      "stateMutability": "nonpayable",
      "type": "function"
    },
    {
      "inputs": [
        {
          "internalType": "address",
          "name": "_address",
          "type": "address"
        }
      ],
      "name": "getBalanceOfAddress",
      "outputs": [
        {
          "internalType": "uint256",
          "name": "",
          "type": "uint256"
        }
      ],
      "stateMutability": "view",
      "type": "function"
    },
    {
      "inputs": [
        {
          "internalType": "address",
          "name": "spender",
          "type": "address"
        },
        {
          "internalType": "uint256",
          "name": "addedValue",
          "type": "uint256"
        }
      ],
      "name": "increaseAllowance",
      "outputs": [
        {
          "internalType": "bool",
          "name": "",
          "type": "bool"
        }
      ],
      "stateMutability": "nonpayable",
      "type": "function"
    },
    {
      "inputs": [],
      "name": "integrateUniswap",
      "outputs": [],
      "stateMutability": "nonpayable",
      "type": "function"
    },
    {
      "inputs": [],
      "name": "isUniswapIntegrated",
      "outputs": [
        {
          "internalType": "bool",
          "name": "",
          "type": "bool"
        }
      ],
      "stateMutability": "view",
      "type": "function"
    },
    {
      "inputs": [],
      "name": "name",
      "outputs": [
        {
          "internalType": "string",
          "name": "",
          "type": "string"
        }
      ],
      "stateMutability": "view",
      "type": "function"
    },
    {
      "inputs": [],
      "name": "owner",
      "outputs": [
        {
          "internalType": "address",
          "name": "",
          "type": "address"
        }
      ],
      "stateMutability": "view",
      "type": "function"
    },
    {
      "inputs": [],
      "name": "pauseSale",
      "outputs": [],
      "stateMutability": "nonpayable",
      "type": "function"
    },
    {
      "inputs": [],
      "name": "paused",
      "outputs": [
        {
          "internalType": "bool",
          "name": "",
          "type": "bool"
        }
      ],
      "stateMutability": "view",
      "type": "function"
    },
    {
      "inputs": [],
      "name": "resumeSale",
      "outputs": [],
      "stateMutability": "nonpayable",
      "type": "function"
    },
    {
      "inputs": [],
      "name": "symbol",
      "outputs": [
        {
          "internalType": "string",
          "name": "",
          "type": "string"
        }
      ],
      "stateMutability": "view",
      "type": "function"
    },
    {
      "inputs": [],
      "name": "tokenPriceInWei",
      "outputs": [
        {
          "internalType": "uint256",
          "name": "",
          "type": "uint256"
        }
      ],
      "stateMutability": "view",
      "type": "function"
    },
    {
      "inputs": [],
      "name": "totalMinerRewards",
      "outputs": [
        {
          "internalType": "uint256",
          "name": "",
          "type": "uint256"
        }
      ],
      "stateMutability": "view",
      "type": "function"
    },
    {
      "inputs": [],
      "name": "totalSupply",
      "outputs": [
        {
          "internalType": "uint256",
          "name": "",
          "type": "uint256"
        }
      ],
      "stateMutability": "view",
      "type": "function"
    },
    {
      "inputs": [
        {
          "internalType": "address",
          "name": "to",
          "type": "address"
        },
        {
          "internalType": "uint256",
          "name": "amount",
          "type": "uint256"
        }
      ],
      "name": "transfer",
      "outputs": [
        {
          "internalType": "bool",
          "name": "",
          "type": "bool"
        }
      ],
      "stateMutability": "nonpayable",
      "type": "function"
    },
    {
      "inputs": [
        {
          "internalType": "address",
          "name": "from",
          "type": "address"
        },
        {
          "internalType": "address",
          "name": "to",
          "type": "address"
        },
        {
          "internalType": "uint256",
          "name": "amount",
          "type": "uint256"
        }
      ],
      "name": "transferFrom",
      "outputs": [
        {
          "internalType": "bool",
          "name": "",
          "type": "bool"
        }
      ],
      "stateMutability": "nonpayable",
      "type": "function"
    },
    {
      "inputs": [
        {
          "internalType": "uint256",
          "name": "amount",
          "type": "uint256"
        }
      ],
      "name": "withdraw",
      "outputs": [],
      "stateMutability": "nonpayable",
      "type": "function"
    }
  ],
  "bytecode": "0x60a06040526001600560156101000a81548160ff021916908360ff1602179055506000600560166101000a81548160ff0219169083151502179055503480156200004857600080fd5b50620000596200020f60201b60201c565b600a6200006791906200065f565b661bfed178d480006200007b9190620006b0565b6040518060400160405280601381526020017f4475636b42696c6c65644d656d65546f6b656e000000000000000000000000008152506040518060400160405280600381526020017f44425400000000000000000000000000000000000000000000000000000000008152508160039081620000f891906200096b565b5080600490816200010a91906200096b565b5050506000811162000153576040517f08c379a00000000000000000000000000000000000000000000000000000000081526004016200014a9062000ab3565b60405180910390fd5b8060808181525050506000600560006101000a81548160ff02191690831515021790555033600560016101000a81548173ffffffffffffffffffffffffffffffffffffffff021916908373ffffffffffffffffffffffffffffffffffffffff16021790555062000209336021620001cf6200020f60201b60201c565b600a620001dd91906200065f565b661bfed178d48000620001f19190620006b0565b620001fd919062000b04565b6200021860201b60201c565b62000c89565b60006012905090565b62000228620002a960201b60201c565b816200023e620002b360201b620007081760201c565b6200024a919062000b3c565b11156200028e576040517f08c379a0000000000000000000000000000000000000000000000000000000008152600401620002859062000bc7565b60405180910390fd5b620002a58282620002bd60201b62000fc31760201c565b5050565b6000608051905090565b6000600254905090565b620002cd620002a960201b60201c565b81620002e3620002b360201b620007081760201c565b620002ef919062000b3c565b111562000333576040517f08c379a00000000000000000000000000000000000000000000000000000000081526004016200032a9062000bc7565b60405180910390fd5b6200034a82826200034e60201b6200102d1760201c565b5050565b600073ffffffffffffffffffffffffffffffffffffffff168273ffffffffffffffffffffffffffffffffffffffff1603620003c0576040517f08c379a0000000000000000000000000000000000000000000000000000000008152600401620003b79062000c39565b60405180910390fd5b620003d460008383620004bb60201b60201c565b8060026000828254620003e8919062000b3c565b92505081905550806000808473ffffffffffffffffffffffffffffffffffffffff1673ffffffffffffffffffffffffffffffffffffffff168152602001908152602001600020600082825401925050819055508173ffffffffffffffffffffffffffffffffffffffff16600073ffffffffffffffffffffffffffffffffffffffff167fddf252ad1be2c89b69c2b068fc378daa952ba7f163c4a11628f55a4df523b3ef836040516200049b919062000c6c565b60405180910390a3620004b760008383620004c060201b60201c565b5050565b505050565b505050565b7f4e487b7100000000000000000000000000000000000000000000000000000000600052601160045260246000fd5b60008160011c9050919050565b6000808291508390505b600185111562000553578086048111156200052b576200052a620004c5565b5b60018516156200053b5780820291505b80810290506200054b85620004f4565b94506200050b565b94509492505050565b6000826200056e576001905062000641565b816200057e576000905062000641565b8160018114620005975760028114620005a257620005d8565b600191505062000641565b60ff841115620005b757620005b6620004c5565b5b8360020a915084821115620005d157620005d0620004c5565b5b5062000641565b5060208310610133831016604e8410600b8410161715620006125782820a9050838111156200060c576200060b620004c5565b5b62000641565b62000621848484600162000501565b925090508184048111156200063b576200063a620004c5565b5b81810290505b9392505050565b6000819050919050565b600060ff82169050919050565b60006200066c8262000648565b9150620006798362000652565b9250620006a87fffffffffffffffffffffffffffffffffffffffffffffffffffffffffffffffff84846200055c565b905092915050565b6000620006bd8262000648565b9150620006ca8362000648565b9250828202620006da8162000648565b91508282048414831517620006f457620006f3620004c5565b5b5092915050565b600081519050919050565b7f4e487b7100000000000000000000000000000000000000000000000000000000600052604160045260246000fd5b7f4e487b7100000000000000000000000000000000000000000000000000000000600052602260045260246000fd5b600060028204905060018216806200077d57607f821691505b60208210810362000793576200079262000735565b5b50919050565b60008190508160005260206000209050919050565b60006020601f8301049050919050565b600082821b905092915050565b600060088302620007fd7fffffffffffffffffffffffffffffffffffffffffffffffffffffffffffffffff82620007be565b620008098683620007be565b95508019841693508086168417925050509392505050565b6000819050919050565b60006200084c62000846620008408462000648565b62000821565b62000648565b9050919050565b6000819050919050565b62000868836200082b565b62000880620008778262000853565b848454620007cb565b825550505050565b600090565b6200089762000888565b620008a48184846200085d565b505050565b5b81811015620008cc57620008c06000826200088d565b600181019050620008aa565b5050565b601f8211156200091b57620008e58162000799565b620008f084620007ae565b8101602085101562000900578190505b620009186200090f85620007ae565b830182620008a9565b50505b505050565b600082821c905092915050565b6000620009406000198460080262000920565b1980831691505092915050565b60006200095b83836200092d565b9150826002028217905092915050565b6200097682620006fb565b67ffffffffffffffff81111562000992576200099162000706565b5b6200099e825462000764565b620009ab828285620008d0565b600060209050601f831160018114620009e35760008415620009ce578287015190505b620009da85826200094d565b86555062000a4a565b601f198416620009f38662000799565b60005b8281101562000a1d57848901518255600182019150602085019450602081019050620009f6565b8683101562000a3d578489015162000a39601f8916826200092d565b8355505b6001600288020188555050505b505050505050565b600082825260208201905092915050565b7f45524332304361707065643a2063617020697320300000000000000000000000600082015250565b600062000a9b60158362000a52565b915062000aa88262000a63565b602082019050919050565b6000602082019050818103600083015262000ace8162000a8c565b9050919050565b7f4e487b7100000000000000000000000000000000000000000000000000000000600052601260045260246000fd5b600062000b118262000648565b915062000b1e8362000648565b92508262000b315762000b3062000ad5565b5b828204905092915050565b600062000b498262000648565b915062000b568362000648565b925082820190508082111562000b715762000b70620004c5565b5b92915050565b7f45524332304361707065643a2063617020657863656564656400000000000000600082015250565b600062000baf60198362000a52565b915062000bbc8262000b77565b602082019050919050565b6000602082019050818103600083015262000be28162000ba0565b9050919050565b7f45524332303a206d696e7420746f20746865207a65726f206164647265737300600082015250565b600062000c21601f8362000a52565b915062000c2e8262000be9565b602082019050919050565b6000602082019050818103600083015262000c548162000c12565b9050919050565b62000c668162000648565b82525050565b600060208201905062000c83600083018462000c5b565b92915050565b608051612b5462000ca5600039600061092e0152612b546000f3fe60806040526004361061019c5760003560e01c80635c975abb116100ec57806395d89b411161008a578063a9059cbb11610064578063a9059cbb14610597578063c2317d45146105d4578063dd62ed3e146105eb578063fd8b2a55146106285761019c565b806395d89b41146104f2578063a457c2d71461051d578063a665c4a41461055a5761019c565b806379cc6790116100c657806379cc67901461045c57806383197ef01461048557806387840c5c1461049c5780638da5cb5b146104c75761019c565b80635c975abb146103cb5780636d1b229d146103f657806370a082311461041f5761019c565b8063313ce567116101595780633610724e116101335780633610724e14610332578063395093511461034e57806342966c681461038b57806355367ba9146103b45761019c565b8063313ce567146102c557806333e364cb146102f0578063355274ea146103075761019c565b806306fdde03146101a1578063095ea7b3146101cc57806318160ddd1461020957806323b872dd146102345780632e1a7d4d146102715780632f8de8101461029a575b600080fd5b3480156101ad57600080fd5b506101b6610653565b6040516101c39190611bde565b60405180910390f35b3480156101d857600080fd5b506101f360048036038101906101ee9190611c99565b6106e5565b6040516102009190611cf4565b60405180910390f35b34801561021557600080fd5b5061021e610708565b60405161022b9190611d1e565b60405180910390f35b34801561024057600080fd5b5061025b60048036038101906102569190611d39565b610712565b6040516102689190611cf4565b60405180910390f35b34801561027d57600080fd5b5061029860048036038101906102939190611d8c565b610741565b005b3480156102a657600080fd5b506102af610880565b6040516102bc9190611d1e565b60405180910390f35b3480156102d157600080fd5b506102da610887565b6040516102e79190611dd5565b60405180910390f35b3480156102fc57600080fd5b50610305610890565b005b34801561031357600080fd5b5061031c61092a565b6040516103299190611d1e565b60405180910390f35b61034c60048036038101906103479190611d8c565b610952565b005b34801561035a57600080fd5b5061037560048036038101906103709190611c99565b610a87565b6040516103829190611cf4565b60405180910390f35b34801561039757600080fd5b506103b260048036038101906103ad9190611d8c565b610abe565b005b3480156103c057600080fd5b506103c9610ad2565b005b3480156103d757600080fd5b506103e0610b6c565b6040516103ed9190611cf4565b60405180910390f35b34801561040257600080fd5b5061041d60048036038101906104189190611d8c565b610b83565b005b34801561042b57600080fd5b5061044660048036038101906104419190611df0565b610bdb565b6040516104539190611d1e565b60405180910390f35b34801561046857600080fd5b50610483600480360381019061047e9190611c99565b610c23565b005b34801561049157600080fd5b5061049a610c43565b005b3480156104a857600080fd5b506104b1610d0e565b6040516104be9190611d1e565b60405180910390f35b3480156104d357600080fd5b506104dc610d14565b6040516104e99190611e2c565b60405180910390f35b3480156104fe57600080fd5b50610507610d3e565b6040516105149190611bde565b60405180910390f35b34801561052957600080fd5b50610544600480360381019061053f9190611c99565b610dd0565b6040516105519190611cf4565b60405180910390f35b34801561056657600080fd5b50610581600480360381019061057c9190611df0565b610e47565b60405161058e9190611d1e565b60405180910390f35b3480156105a357600080fd5b506105be60048036038101906105b99190611c99565b610e59565b6040516105cb9190611cf4565b60405180910390f35b3480156105e057600080fd5b506105e9610e7c565b005b3480156105f757600080fd5b50610612600480360381019061060d9190611e47565b610f29565b60405161061f9190611d1e565b60405180910390f35b34801561063457600080fd5b5061063d610fb0565b60405161064a9190611cf4565b60405180910390f35b60606003805461066290611eb6565b80601f016020809104026020016040519081016040528092919081815260200182805461068e90611eb6565b80156106db5780601f106106b0576101008083540402835291602001916106db565b820191906000526020600020905b8154815290600101906020018083116106be57829003601f168201915b5050505050905090565b6000806106f0611183565b90506106fd81858561118b565b600191505092915050565b6000600254905090565b60008061071d611183565b905061072a858285611354565b6107358585856113e0565b60019150509392505050565b600560019054906101000a900473ffffffffffffffffffffffffffffffffffffffff1673ffffffffffffffffffffffffffffffffffffffff163373ffffffffffffffffffffffffffffffffffffffff16146107d1576040517f08c379a00000000000000000000000000000000000000000000000000000000081526004016107c890611f59565b60405180910390fd5b80471015610814576040517f08c379a000000000000000000000000000000000000000000000000000000000815260040161080b90611feb565b60405180910390fd5b600560019054906101000a900473ffffffffffffffffffffffffffffffffffffffff1673ffffffffffffffffffffffffffffffffffffffff166108fc829081150290604051600060405180830381858888f1935050505015801561087c573d6000803e3d6000fd5b5050565b6203138e81565b60006012905090565b600560019054906101000a900473ffffffffffffffffffffffffffffffffffffffff1673ffffffffffffffffffffffffffffffffffffffff163373ffffffffffffffffffffffffffffffffffffffff1614610920576040517f08c379a000000000000000000000000000000000000000000000000000000000815260040161091790611f59565b60405180910390fd5b6109286114f5565b565b60007f0000000000000000000000000000000000000000000000000000000000000000905090565b61095a611558565b600560169054906101000a900460ff16156109aa576040517f08c379a00000000000000000000000000000000000000000000000000000000081526004016109a190612057565b60405180910390fd5b60006109b4610887565b600a6109c091906121d9565b6203138e836109cf9190612224565b6109d99190612295565b9050803414610a1d576040517f08c379a0000000000000000000000000000000000000000000000000000000008152600401610a1490612312565b60405180910390fd5b610a2561092a565b82610a2e610708565b610a389190612332565b1115610a79576040517f08c379a0000000000000000000000000000000000000000000000000000000008152600401610a70906123b2565b60405180910390fd5b610a8333836115a2565b5050565b600080610a92611183565b9050610ab3818585610aa48589610f29565b610aae9190612332565b61118b565b600191505092915050565b610acf610ac9611183565b8261160c565b50565b600560019054906101000a900473ffffffffffffffffffffffffffffffffffffffff1673ffffffffffffffffffffffffffffffffffffffff163373ffffffffffffffffffffffffffffffffffffffff1614610b62576040517f08c379a0000000000000000000000000000000000000000000000000000000008152600401610b5990611f59565b60405180910390fd5b610b6a6117d9565b565b6000600560009054906101000a900460ff16905090565b80610b8d33610bdb565b1015610bce576040517f08c379a0000000000000000000000000000000000000000000000000000000008152600401610bc59061241e565b60405180910390fd5b610bd8338261160c565b50565b60008060008373ffffffffffffffffffffffffffffffffffffffff1673ffffffffffffffffffffffffffffffffffffffff168152602001908152602001600020549050919050565b610c3582610c2f611183565b83611354565b610c3f828261160c565b5050565b600560019054906101000a900473ffffffffffffffffffffffffffffffffffffffff1673ffffffffffffffffffffffffffffffffffffffff163373ffffffffffffffffffffffffffffffffffffffff1614610cd3576040517f08c379a0000000000000000000000000000000000000000000000000000000008152600401610cca90611f59565b60405180910390fd5b600560019054906101000a900473ffffffffffffffffffffffffffffffffffffffff1673ffffffffffffffffffffffffffffffffffffffff16ff5b60065481565b6000600560019054906101000a900473ffffffffffffffffffffffffffffffffffffffff16905090565b606060048054610d4d90611eb6565b80601f0160208091040260200160405190810160405280929190818152602001828054610d7990611eb6565b8015610dc65780601f10610d9b57610100808354040283529160200191610dc6565b820191906000526020600020905b815481529060010190602001808311610da957829003601f168201915b5050505050905090565b600080610ddb611183565b90506000610de98286610f29565b905083811015610e2e576040517f08c379a0000000000000000000000000000000000000000000000000000000008152600401610e25906124b0565b60405180910390fd5b610e3b828686840361118b565b60019250505092915050565b6000610e5282610bdb565b9050919050565b600080610e64611183565b9050610e718185856113e0565b600191505092915050565b600560019054906101000a900473ffffffffffffffffffffffffffffffffffffffff1673ffffffffffffffffffffffffffffffffffffffff163373ffffffffffffffffffffffffffffffffffffffff1614610f0c576040517f08c379a0000000000000000000000000000000000000000000000000000000008152600401610f0390611f59565b60405180910390fd5b6001600560166101000a81548160ff021916908315150217905550565b6000600160008473ffffffffffffffffffffffffffffffffffffffff1673ffffffffffffffffffffffffffffffffffffffff16815260200190815260200160002060008373ffffffffffffffffffffffffffffffffffffffff1673ffffffffffffffffffffffffffffffffffffffff16815260200190815260200160002054905092915050565b600560169054906101000a900460ff1681565b610fcb61092a565b81610fd4610708565b610fde9190612332565b111561101f576040517f08c379a00000000000000000000000000000000000000000000000000000000081526004016110169061251c565b60405180910390fd5b611029828261102d565b5050565b600073ffffffffffffffffffffffffffffffffffffffff168273ffffffffffffffffffffffffffffffffffffffff160361109c576040517f08c379a000000000000000000000000000000000000000000000000000000000815260040161109390612588565b60405180910390fd5b6110a86000838361183c565b80600260008282546110ba9190612332565b92505081905550806000808473ffffffffffffffffffffffffffffffffffffffff1673ffffffffffffffffffffffffffffffffffffffff168152602001908152602001600020600082825401925050819055508173ffffffffffffffffffffffffffffffffffffffff16600073ffffffffffffffffffffffffffffffffffffffff167fddf252ad1be2c89b69c2b068fc378daa952ba7f163c4a11628f55a4df523b3ef8360405161116b9190611d1e565b60405180910390a361117f60008383611841565b5050565b600033905090565b600073ffffffffffffffffffffffffffffffffffffffff168373ffffffffffffffffffffffffffffffffffffffff16036111fa576040517f08c379a00000000000000000000000000000000000000000000000000000000081526004016111f19061261a565b60405180910390fd5b600073ffffffffffffffffffffffffffffffffffffffff168273ffffffffffffffffffffffffffffffffffffffff1603611269576040517f08c379a0000000000000000000000000000000000000000000000000000000008152600401611260906126ac565b60405180910390fd5b80600160008573ffffffffffffffffffffffffffffffffffffffff1673ffffffffffffffffffffffffffffffffffffffff16815260200190815260200160002060008473ffffffffffffffffffffffffffffffffffffffff1673ffffffffffffffffffffffffffffffffffffffff168152602001908152602001600020819055508173ffffffffffffffffffffffffffffffffffffffff168373ffffffffffffffffffffffffffffffffffffffff167f8c5be1e5ebec7d5bd14f71427d1e84f3dd0314c0f7b2291e5b200ac8c7c3b925836040516113479190611d1e565b60405180910390a3505050565b60006113608484610f29565b90507fffffffffffffffffffffffffffffffffffffffffffffffffffffffffffffffff81146113da57818110156113cc576040517f08c379a00000000000000000000000000000000000000000000000000000000081526004016113c390612718565b60405180910390fd5b6113d9848484840361118b565b5b50505050565b600073ffffffffffffffffffffffffffffffffffffffff168373ffffffffffffffffffffffffffffffffffffffff160361144f576040517f08c379a0000000000000000000000000000000000000000000000000000000008152600401611446906127aa565b60405180910390fd5b600073ffffffffffffffffffffffffffffffffffffffff168273ffffffffffffffffffffffffffffffffffffffff16036114be576040517f08c379a00000000000000000000000000000000000000000000000000000000081526004016114b59061283c565b60405180910390fd5b60006114c982611846565b905060006114d78383611879565b90506114e485858361188f565b6114ee858361160c565b5050505050565b6114fd611b05565b6000600560006101000a81548160ff0219169083151502179055507f5db9ee0a495bf2e6ff9c91a7834c1ba4fdd244a5e8aa4e537bd38aeae4b073aa611541611183565b60405161154e9190611e2c565b60405180910390a1565b611560610b6c565b156115a0576040517f08c379a0000000000000000000000000000000000000000000000000000000008152600401611597906128a8565b60405180910390fd5b565b6115aa61092a565b816115b3610708565b6115bd9190612332565b11156115fe576040517f08c379a00000000000000000000000000000000000000000000000000000000081526004016115f59061251c565b60405180910390fd5b6116088282610fc3565b5050565b600073ffffffffffffffffffffffffffffffffffffffff168273ffffffffffffffffffffffffffffffffffffffff160361167b576040517f08c379a00000000000000000000000000000000000000000000000000000000081526004016116729061293a565b60405180910390fd5b6116878260008361183c565b60008060008473ffffffffffffffffffffffffffffffffffffffff1673ffffffffffffffffffffffffffffffffffffffff1681526020019081526020016000205490508181101561170d576040517f08c379a0000000000000000000000000000000000000000000000000000000008152600401611704906129cc565b60405180910390fd5b8181036000808573ffffffffffffffffffffffffffffffffffffffff1673ffffffffffffffffffffffffffffffffffffffff1681526020019081526020016000208190555081600260008282540392505081905550600073ffffffffffffffffffffffffffffffffffffffff168373ffffffffffffffffffffffffffffffffffffffff167fddf252ad1be2c89b69c2b068fc378daa952ba7f163c4a11628f55a4df523b3ef846040516117c09190611d1e565b60405180910390a36117d483600084611841565b505050565b6117e1611558565b6001600560006101000a81548160ff0219169083151502179055507f62e78cea01bee320cd4e420270b5ea74000d11b0c9f74754ebdbfc544b05a258611825611183565b6040516118329190611e2c565b60405180910390a1565b505050565b505050565b60006064600560159054906101000a900460ff1660ff16836118689190612224565b6118729190612295565b9050919050565b6000818361188791906129ec565b905092915050565b600073ffffffffffffffffffffffffffffffffffffffff168373ffffffffffffffffffffffffffffffffffffffff16036118fe576040517f08c379a00000000000000000000000000000000000000000000000000000000081526004016118f5906127aa565b60405180910390fd5b600073ffffffffffffffffffffffffffffffffffffffff168273ffffffffffffffffffffffffffffffffffffffff160361196d576040517f08c379a00000000000000000000000000000000000000000000000000000000081526004016119649061283c565b60405180910390fd5b61197883838361183c565b60008060008573ffffffffffffffffffffffffffffffffffffffff1673ffffffffffffffffffffffffffffffffffffffff168152602001908152602001600020549050818110156119fe576040517f08c379a00000000000000000000000000000000000000000000000000000000081526004016119f590612a92565b60405180910390fd5b8181036000808673ffffffffffffffffffffffffffffffffffffffff1673ffffffffffffffffffffffffffffffffffffffff16815260200190815260200160002081905550816000808573ffffffffffffffffffffffffffffffffffffffff1673ffffffffffffffffffffffffffffffffffffffff168152602001908152602001600020600082825401925050819055508273ffffffffffffffffffffffffffffffffffffffff168473ffffffffffffffffffffffffffffffffffffffff167fddf252ad1be2c89b69c2b068fc378daa952ba7f163c4a11628f55a4df523b3ef84604051611aec9190611d1e565b60405180910390a3611aff848484611841565b50505050565b611b0d610b6c565b611b4c576040517f08c379a0000000000000000000000000000000000000000000000000000000008152600401611b4390612afe565b60405180910390fd5b565b600081519050919050565b600082825260208201905092915050565b60005b83811015611b88578082015181840152602081019050611b6d565b60008484015250505050565b6000601f19601f8301169050919050565b6000611bb082611b4e565b611bba8185611b59565b9350611bca818560208601611b6a565b611bd381611b94565b840191505092915050565b60006020820190508181036000830152611bf88184611ba5565b905092915050565b600080fd5b600073ffffffffffffffffffffffffffffffffffffffff82169050919050565b6000611c3082611c05565b9050919050565b611c4081611c25565b8114611c4b57600080fd5b50565b600081359050611c5d81611c37565b92915050565b6000819050919050565b611c7681611c63565b8114611c8157600080fd5b50565b600081359050611c9381611c6d565b92915050565b60008060408385031215611cb057611caf611c00565b5b6000611cbe85828601611c4e565b9250506020611ccf85828601611c84565b9150509250929050565b60008115159050919050565b611cee81611cd9565b82525050565b6000602082019050611d096000830184611ce5565b92915050565b611d1881611c63565b82525050565b6000602082019050611d336000830184611d0f565b92915050565b600080600060608486031215611d5257611d51611c00565b5b6000611d6086828701611c4e565b9350506020611d7186828701611c4e565b9250506040611d8286828701611c84565b9150509250925092565b600060208284031215611da257611da1611c00565b5b6000611db084828501611c84565b91505092915050565b600060ff82169050919050565b611dcf81611db9565b82525050565b6000602082019050611dea6000830184611dc6565b92915050565b600060208284031215611e0657611e05611c00565b5b6000611e1484828501611c4e565b91505092915050565b611e2681611c25565b82525050565b6000602082019050611e416000830184611e1d565b92915050565b60008060408385031215611e5e57611e5d611c00565b5b6000611e6c85828601611c4e565b9250506020611e7d85828601611c4e565b9150509250929050565b7f4e487b7100000000000000000000000000000000000000000000000000000000600052602260045260246000fd5b60006002820490506001821680611ece57607f821691505b602082108103611ee157611ee0611e87565b5b50919050565b7f6f6e6c79206f776e65722063616e2063616c6c20746869732066756e6374696f60008201527f6e00000000000000000000000000000000000000000000000000000000000000602082015250565b6000611f43602183611b59565b9150611f4e82611ee7565b604082019050919050565b60006020820190508181036000830152611f7281611f36565b9050919050565b7f6e6f7420656e6f75676820696e2062616c6e636520746f20776974686472617760008201527f207468617420616d6f756e740000000000000000000000000000000000000000602082015250565b6000611fd5602c83611b59565b9150611fe082611f79565b604082019050919050565b6000602082019050818103600083015261200481611fc8565b9050919050565b7f546f6b656e20697320616c7265616479206f6e20556e69737761700000000000600082015250565b6000612041601b83611b59565b915061204c8261200b565b602082019050919050565b6000602082019050818103600083015261207081612034565b9050919050565b7f4e487b7100000000000000000000000000000000000000000000000000000000600052601160045260246000fd5b60008160011c9050919050565b6000808291508390505b60018511156120fd578086048111156120d9576120d8612077565b5b60018516156120e85780820291505b80810290506120f6856120a6565b94506120bd565b94509492505050565b60008261211657600190506121d2565b8161212457600090506121d2565b816001811461213a576002811461214457612173565b60019150506121d2565b60ff84111561215657612155612077565b5b8360020a91508482111561216d5761216c612077565b5b506121d2565b5060208310610133831016604e8410600b84101617156121a85782820a9050838111156121a3576121a2612077565b5b6121d2565b6121b584848460016120b3565b925090508184048111156121cc576121cb612077565b5b81810290505b9392505050565b60006121e482611c63565b91506121ef83611db9565b925061221c7fffffffffffffffffffffffffffffffffffffffffffffffffffffffffffffffff8484612106565b905092915050565b600061222f82611c63565b915061223a83611c63565b925082820261224881611c63565b9150828204841483151761225f5761225e612077565b5b5092915050565b7f4e487b7100000000000000000000000000000000000000000000000000000000600052601260045260246000fd5b60006122a082611c63565b91506122ab83611c63565b9250826122bb576122ba612266565b5b828204905092915050565b7f496e636f7272656374204554482076616c75652073656e740000000000000000600082015250565b60006122fc601883611b59565b9150612307826122c6565b602082019050919050565b6000602082019050818103600083015261232b816122ef565b9050919050565b600061233d82611c63565b915061234883611c63565b92508282019050808211156123605761235f612077565b5b92915050565b7f507572636861736520776f756c64206578636565642063617000000000000000600082015250565b600061239c601983611b59565b91506123a782612366565b602082019050919050565b600060208201905081810360008301526123cb8161238f565b9050919050565b7f496e73756666696369656e7420746f6b656e7320746f206275726e0000000000600082015250565b6000612408601b83611b59565b9150612413826123d2565b602082019050919050565b60006020820190508181036000830152612437816123fb565b9050919050565b7f45524332303a2064656372656173656420616c6c6f77616e63652062656c6f7760008201527f207a65726f000000000000000000000000000000000000000000000000000000602082015250565b600061249a602583611b59565b91506124a58261243e565b604082019050919050565b600060208201905081810360008301526124c98161248d565b9050919050565b7f45524332304361707065643a2063617020657863656564656400000000000000600082015250565b6000612506601983611b59565b9150612511826124d0565b602082019050919050565b60006020820190508181036000830152612535816124f9565b9050919050565b7f45524332303a206d696e7420746f20746865207a65726f206164647265737300600082015250565b6000612572601f83611b59565b915061257d8261253c565b602082019050919050565b600060208201905081810360008301526125a181612565565b9050919050565b7f45524332303a20617070726f76652066726f6d20746865207a65726f2061646460008201527f7265737300000000000000000000000000000000000000000000000000000000602082015250565b6000612604602483611b59565b915061260f826125a8565b604082019050919050565b60006020820190508181036000830152612633816125f7565b9050919050565b7f45524332303a20617070726f766520746f20746865207a65726f20616464726560008201527f7373000000000000000000000000000000000000000000000000000000000000602082015250565b6000612696602283611b59565b91506126a18261263a565b604082019050919050565b600060208201905081810360008301526126c581612689565b9050919050565b7f45524332303a20696e73756666696369656e7420616c6c6f77616e6365000000600082015250565b6000612702601d83611b59565b915061270d826126cc565b602082019050919050565b60006020820190508181036000830152612731816126f5565b9050919050565b7f45524332303a207472616e736665722066726f6d20746865207a65726f20616460008201527f6472657373000000000000000000000000000000000000000000000000000000602082015250565b6000612794602583611b59565b915061279f82612738565b604082019050919050565b600060208201905081810360008301526127c381612787565b9050919050565b7f45524332303a207472616e7366657220746f20746865207a65726f206164647260008201527f6573730000000000000000000000000000000000000000000000000000000000602082015250565b6000612826602383611b59565b9150612831826127ca565b604082019050919050565b6000602082019050818103600083015261285581612819565b9050919050565b7f5061757361626c653a2070617573656400000000000000000000000000000000600082015250565b6000612892601083611b59565b915061289d8261285c565b602082019050919050565b600060208201905081810360008301526128c181612885565b9050919050565b7f45524332303a206275726e2066726f6d20746865207a65726f2061646472657360008201527f7300000000000000000000000000000000000000000000000000000000000000602082015250565b6000612924602183611b59565b915061292f826128c8565b604082019050919050565b6000602082019050818103600083015261295381612917565b9050919050565b7f45524332303a206275726e20616d6f756e7420657863656564732062616c616e60008201527f6365000000000000000000000000000000000000000000000000000000000000602082015250565b60006129b6602283611b59565b91506129c18261295a565b604082019050919050565b600060208201905081810360008301526129e5816129a9565b9050919050565b60006129f782611c63565b9150612a0283611c63565b9250828203905081811115612a1a57612a19612077565b5b92915050565b7f45524332303a207472616e7366657220616d6f756e742065786365656473206260008201527f616c616e63650000000000000000000000000000000000000000000000000000602082015250565b6000612a7c602683611b59565b9150612a8782612a20565b604082019050919050565b60006020820190508181036000830152612aab81612a6f565b9050919050565b7f5061757361626c653a206e6f7420706175736564000000000000000000000000600082015250565b6000612ae8601483611b59565b9150612af382612ab2565b602082019050919050565b60006020820190508181036000830152612b1781612adb565b905091905056fea2646970667358221220562e322d1fc8d4680806dfb9b7150dfe507ca5239aae2a15011164b1d8be93a964736f6c63430008110033",
  "linkReferences": {},
  "deployedLinkReferences": {}
}